S01900004C45442053657175656E63652056332E302E73726563D6
S11300000C9432000C94E0020C94F6020C9444001C
S11300100C9444000C9444000C9444000C9444004C
S11300200C9444000C9444000C9444000C940C0371
S11300300C9444000C9444000C9444000C9444002C
S11300400C9444000C9444000C9444000C9444001C
S11300500C94440023092D09370941094B0955091A
S11300605F09690911241FBECFE5D8E0DEBFCDBF0B
S113007020E0A0E6B0E001C01D92A336B207E1F78C
S11300800E944F000C94A2090C940000883228F4BA
S113009060E00E947D0080E0089581E0089580E0A2
S11300A00E94460081E00E94460082E00E944600D1
S11300B083E00E94460062E08AE10E947D0062E0E3
S11300C08BE10E947D00789460E080E00E948402CD
S11300D060E081E00E94840280E00E94720281E07C
S11300E00E94720240E063E080E00E94F5080E94F2
S11300F0980986E00E949609FFCF982F96959695C9
S11301009695953008F005C18770613031F008F498
S1130110ACC0623009F455C0FEC09130C9F028F07B
S1130120923049F19330D1F1F8C04AB321E030E084
S1130130B90102C0660F771F8A95E2F7CB0180955B
S1130140942F98239ABB9BB389238BBB80E008959B
S113015047B321E030E0B90102C0660F771F8A95EA
S1130160E2F7CB018095942F982397BB98B389230A
S113017088BB80E0089544B321E030E0B90102C0B7
S1130180660F771F8A95E2F7CB018095942F982309
S113019094BB95B3892385BB80E0089541B321E0E6
S11301A030E0B90102C0660F771F8A95E2F7CB01F0
S11301B08095942F982391BB92B3892382BB80E0CE
S11301C008959130C9F028F0923049F19330D1F17B
S11301D0A6C04AB321E030E0B90102C0660F771F20
S11301E08A95E2F7CB01962F909594239ABB9BB303
S11301F0892B8BBB80E0089547B321E030E0B9013F
S113020002C0660F771F8A95E2F7CB01962F90956F
S1130210942397BB98B3892B88BB80E0089544B39B
S113022021E030E0B90102C0660F771F8A95E2F73A
S1130230CB01962F9095942394BB95B3892B85BBC2
S113024080E0089541B321E030E0B90102C0660FB7
S1130250771F8A95E2F7CB01962F9095942391BB53
S113026092B3892B82BB80E008959130C9F028F0C5
S1130270923049F19330D1F154C04BB321E030E0D6
S1130280B90102C0660F771F8A95E2F7CB01962F5A
S1130290909594239BBB9AB3892B8ABB80E00895E5
S11302A048B321E030E0B90102C0660F771F8A9598
S11302B0E2F7CB01962F9095942398BB97B3892BA3
S11302C087BB80E0089545B321E030E0B90102C066
S11302D0660F771F8A95E2F7CB01962F90959423AA
S11302E095BB94B3892B84BB80E0089542B321E08D
S11302F030E0B90102C0660F771F8A95E2F7CB019F
S1130300962F9095942392BB91B3892B81BB80E067
S1130310089582E0089580E0089582E0089582E0DF
S1130320089582E00895982F969596959695953020
S113033008F08DC0623008F08CC08770613009F01D
S113034040C09130A1F028F09230F9F0933059F187
S113035082C04BB321E030E0B90102C0660F771FC1
S11303608A95E2F7CB01842B8BBB80E0089548B3D8
S113037021E030E0B90102C0660F771F8A95E2F7E9
S1130380CB01842B88BB80E0089545B321E030E0A5
S1130390B90102C0660F771F8A95E2F7CB01842B5F
S11303A085BB80E0089542B321E030E0B90102C08A
S11303B0660F771F8A95E2F7CB01842B82BB80E01E
S11303C0089561114AC09130A9F028F0923009F1E2
S11303D0933071F144C04BB321E030E0B90102C065
S11303E0660F771F8A95E2F7CB01809584238BBB38
S11303F080E0089548B321E030E0B90102C0660FFF
S1130400771F8A95E2F7CB018095842388BB80E02F
S1130410089545B321E030E0B90102C0660F771FAB
S11304208A95E2F7CB018095842385BB80E008950B
S113043042B321E030E0B90102C0660F771F8A950C
S1130440E2F7CB018095842382BB80E0089582E0AB
S1130450089583E0089582E0089580E0089582E09D
S11304600895982F9770869586958695813099F092
S113047028F08230E9F0833041F108954BB321E054
S113048030E0B90102C0660F771F9A95E2F7CB01FD
S113049084278BBB089548B321E030E0B90102C042
S11304A0660F771F9A95E2F7CB01842788BB0895DE
S11304B045B321E030E0B90102C0660F771F9A9579
S11304C0E2F7CB01842785BB089542B321E030E0F5
S11304D0B90102C0660F771F9A95E2F7CB01842712
S11304E082BB0895813041F018F0823049F00895BC
S11304F08BB780648BBF08958BB780688BBF0895DA
S11305008BB780628BBF0895813049F120F082302F
S113051009F449C00895613069F028F0623089F027
S11305206330B1F0089585B78E7F85BF85B78D7F21
S113053085BF089585B7816085BF85B78D7F85BFE9
S1130540089585B78E7F85BF85B7826085BF08957E
S113055085B7816085BF85B7826085BF08956130A6
S113056069F028F0623089F06330B1F0089585B7FE
S11305708B7F85BF85B7877F85BF089585B78460E6
S113058085BF85B7877F85BF089585B78B7F85BF76
S113059085B7886085BF089585B7846085BF85B7B2
S11305A0886085BF0895623019F0633029F008959A
S11305B084B78F7B84BF089584B7806484BF089513
S11305C01F920F920FB60F9211248F9380916100A6
S11305D08F5F883019F08093610002C0109261002F
S11305E08F910F900FBE0F901F9018951F920F922E
S11305F00FB60F9211248F93809162008F5F853024
S113060019F08093620002C0109262008F910F90E3
S11306100FBE0F901F9018951F920F920FB60F9256
S113062011242F933F934F935F936F937F938F93F3
S11306309F93AF93BF93EF93FF93809162008111D7
S113064023C1809160008F5F80936000909161006E
S11306509130B9F4853049F460E080E00E94930160
S113066086E090E00E9496090CC08C3309F058C0D3
S113067080E00E9431021092600086E090E00E94C7
S1130680960980916100823001F580916000853087
S113069069F460E081E00E94930160E080E00E94E0
S11306A0930186E090E00E9496090FC08C3309F014
S11306B069C081E00E94310280E00E943102109200
S11306C0600086E090E00E9496098091610083308A
S11306D039F580916000853089F460E082E00E9401
S11306E0930160E081E00E94930160E080E00E9459
S11306F0930186E090E00E94960912C08C3309F0C1
S113070070C082E00E94310281E00E94310280E0E8
S11307100E9431021092600086E090E00E949609E7
S113072080916100843071F5809160008530A9F476
S113073060E083E00E94930160E082E00E94930104
S113074060E081E00E94930160E080E00E949301F8
S113075086E090E00E94960915C08C3309F06CC0C5
S113076083E00E94310282E00E94310281E00E9413
S1130770310280E00E9431021092600086E090E035
S11307800E94960980916100853059F5809160003E
S11307908530A9F460E083E00E94930160E082E088
S11307A00E94930160E081E00E94930160E080E098
S11307B00E94930186E090E00E94960912C08C3357
S11307C009F062C083E00E94310282E00E9431029B
S11307D081E00E9431021092600086E090E00E9465
S11307E0960980916100863039F5809160008530EA
S11307F0A9F460E083E00E94930160E082E00E943B
S1130800930160E081E00E94930160E080E00E9437
S1130810930186E090E00E9496090EC08C33A1F506
S113082083E00E94310282E00E9431021092600053
S113083086E090E00E94960980916100873021F55E
S1130840809160008530A9F460E083E00E94930108
S113085060E082E00E94930160E081E00E949301E5
S113086060E080E00E94930186E090E00E94960997
S11308700BC08C3349F483E00E9431021092600073
S113088086E090E00E94960980916200813009F030
S113089023C1809160008F5F80936000909161001C
S11308A09130B9F48C3049F460E080E00E94930107
S11308B086E090E00E9496090CC08C3309F058C081
S11308C080E00E9431021092600086E090E00E9475
S11308D0960980916100823001F5809160008C302E
S11308E069F460E081E00E94930160E080E00E948E
S11308F0930186E090E00E9496090FC08C3309F0C2
S113090069C081E00E94310280E00E9431021092AD
S1130910600086E090E00E94960980916100833037
S113092039F5809160008C3089F460E082E00E94A7
S1130930930160E081E00E94930160E080E00E9406
S1130940930186E090E00E94960912C08C3309F06E
S113095070C082E00E94310281E00E94310280E096
S11309600E9431021092600086E090E00E94960995
S113097080916100843071F5809160008C30A9F41D
S113098060E083E00E94930160E082E00E949301B2
S113099060E081E00E94930160E080E00E949301A6
S11309A086E090E00E94960915C08C3309F06CC073
S11309B083E00E94310282E00E94310281E00E94C1
S11309C0310280E00E9431021092600086E090E0E3
S11309D00E94960980916100853059F580916000EC
S11309E08C30A9F460E083E00E94930160E082E02F
S11309F00E94930160E081E00E94930160E080E046
S1130A000E94930186E090E00E94960912C08C3304
S1130A1009F062C083E00E94310282E00E94310248
S1130A2081E00E9431021092600086E090E00E9412
S1130A30960980916100863039F5809160008C3090
S1130A40A9F460E083E00E94930160E082E00E94E8
S1130A50930160E081E00E94930160E080E00E94E5
S1130A60930186E090E00E9496090EC08C33A1F5B4
S1130A7083E00E94310282E00E9431021092600001
S1130A8086E090E00E94960980916100873021F50C
S1130A90809160008C30A9F460E083E00E949301AF
S1130AA060E082E00E94930160E081E00E94930193
S1130AB060E080E00E94930186E090E00E94960945
S1130AC00BC08C3349F483E00E9431021092600021
S1130AD086E090E00E94960980916200823009F0DD
S1130AE023C1809160008F5F8093600090916100CA
S1130AF09130B9F4813149F460E080E00E949301BF
S1130B0086E090E00E9496090CC08C3309F058C02E
S1130B1080E00E9431021092600086E090E00E9422
S1130B20960980916100823001F5809160008131E5
S1130B3069F460E081E00E94930160E080E00E943B
S1130B40930186E090E00E9496090FC08C3309F06F
S1130B5069C081E00E94310280E00E94310210925B
S1130B60600086E090E00E949609809161008330E5
S1130B7039F580916000813189F460E082E00E945F
S1130B80930160E081E00E94930160E080E00E94B4
S1130B90930186E090E00E94960912C08C3309F01C
S1130BA070C082E00E94310281E00E94310280E044
S1130BB00E9431021092600086E090E00E94960943
S1130BC080916100843071F5809160008131A9F4D5
S1130BD060E083E00E94930160E082E00E94930160
S1130BE060E081E00E94930160E080E00E94930154
S1130BF086E090E00E94960915C08C3309F06CC021
S1130C0083E00E94310282E00E94310281E00E946E
S1130C10310280E00E9431021092600086E090E090
S1130C200E94960980916100853059F58091600099
S1130C308131A9F460E083E00E94930160E082E0E6
S1130C400E94930160E081E00E94930160E080E0F3
S1130C500E94930186E090E00E94960912C08C33B2
S1130C6009F062C083E00E94310282E00E943102F6
S1130C7081E00E9431021092600086E090E00E94C0
S1130C80960980916100863039F580916000813148
S1130C90A9F460E083E00E94930160E082E00E9496
S1130CA0930160E081E00E94930160E080E00E9493
S1130CB0930186E090E00E9496090EC08C33A1F562
S1130CC083E00E94310282E00E94310210926000AF
S1130CD086E090E00E94960980916100873021F5BA
S1130CE0809160008131A9F460E083E00E94930167
S1130CF060E082E00E94930160E081E00E94930141
S1130D0060E080E00E94930186E090E00E949609F2
S1130D100BC08C3349F483E00E94310210926000CE
S1130D2086E090E00E94960980916200833009F089
S1130D3023C1809160008F5F809360009091610077
S1130D409130B9F48E3149F460E080E00E9493015F
S1130D5086E090E00E9496090CC08C3309F058C0DC
S1130D6080E00E9431021092600086E090E00E94D0
S1130D70960980916100823001F5809160008E3186
S1130D8069F460E081E00E94930160E080E00E94E9
S1130D90930186E090E00E9496090FC08C3309F01D
S1130DA069C081E00E94310280E00E943102109209
S1130DB0600086E090E00E94960980916100833093
S1130DC039F5809160008E3189F460E082E00E9400
S1130DD0930160E081E00E94930160E080E00E9462
S1130DE0930186E090E00E94960912C08C3309F0CA
S1130DF070C082E00E94310281E00E94310280E0F2
S1130E000E9431021092600086E090E00E949609F0
S1130E1080916100843071F5809160008E31A9F475
S1130E2060E083E00E94930160E082E00E9493010D
S1130E3060E081E00E94930160E080E00E94930101
S1130E4086E090E00E94960915C08C3309F06CC0CE
S1130E5083E00E94310282E00E94310281E00E941C
S1130E60310280E00E9431021092600086E090E03E
S1130E700E94960980916100853059F58091600047
S1130E808E31A9F460E083E00E94930160E082E087
S1130E900E94930160E081E00E94930160E080E0A1
S1130EA00E94930186E090E00E94960912C08C3360
S1130EB009F062C083E00E94310282E00E943102A4
S1130EC081E00E9431021092600086E090E00E946E
S1130ED0960980916100863039F5809160008E31E9
S1130EE0A9F460E083E00E94930160E082E00E9444
S1130EF0930160E081E00E94930160E080E00E9441
S1130F00930186E090E00E9496090EC08C33A1F50F
S1130F1083E00E94310282E00E943102109260005C
S1130F2086E090E00E94960980916100873021F567
S1130F30809160008E31A9F460E083E00E94930107
S1130F4060E082E00E94930160E081E00E949301EE
S1130F5060E080E00E94930186E090E00E949609A0
S1130F600BC08C3349F483E00E943102109260007C
S1130F7086E090E00E94960980916200843009F036
S1130F8023C1809160008F5F809360009091610025
S1130F909130B9F4823349F460E080E00E94930117
S1130FA086E090E00E9496090CC08C3309F058C08A
S1130FB080E00E9431021092600086E090E00E947E
S1130FC0960980916100823001F58091600082333E
S1130FD069F460E081E00E94930160E080E00E9497
S1130FE0930186E090E00E9496090FC08C3309F0CB
S1130FF069C081E00E94310280E00E9431021092B7
S1131000600086E090E00E94960980916100833040
S113101039F580916000823389F460E082E00E94B7
S1131020930160E081E00E94930160E080E00E940F
S1131030930186E090E00E94960912C08C3309F077
S113104070C082E00E94310281E00E94310280E09F
S11310500E9431021092600086E090E00E9496099E
S113106080916100843071F5809160008233A9F42D
S113107060E083E00E94930160E082E00E949301BB
S113108060E081E00E94930160E080E00E949301AF
S113109086E090E00E94960915C08C3309F06CC07C
S11310A083E00E94310282E00E94310281E00E94CA
S11310B0310280E00E9431021092600086E090E0EC
S11310C00E94960980916100853059F580916000F5
S11310D08233A9F460E083E00E94930160E082E03F
S11310E00E94930160E081E00E94930160E080E04F
S11310F00E94930186E090E00E94960912C08C330E
S113110009F062C083E00E94310282E00E94310251
S113111081E00E9431021092600086E090E00E941B
S1131120960980916100863039F5809160008233A0
S1131130A9F460E083E00E94930160E082E00E94F1
S1131140930160E081E00E94930160E080E00E94EE
S1131150930186E090E00E9496090EC08C33A1F5BD
S113116083E00E94310282E00E943102109260000A
S113117086E090E00E94960980916100873021F515
S1131180809160008233A9F460E083E00E949301BF
S113119060E082E00E94930160E081E00E9493019C
S11311A060E080E00E94930186E090E00E9496094E
S11311B00BC08C3349F483E00E943102109260002A
S11311C086E090E00E949609FF91EF91BF91AF9164
S11311D09F918F917F916F915F914F913F912F914B
S11311E00F900FBE0F901F901895813069F028F072
S11311F0823089F08330B1F01BC083B78F7B83BF0B
S113120083B7877F83BF14C083B7806483BF83B7EA
S1131210877F83BF0DC083B78F7B83BF83B788600D
S113122083BF06C083B7806483BF83B7886083BFEE
S1131230862F90E08830910508F054C0FC01E65DEB
S1131240FF4F0C949C0983B78E7F83BF83B78D7F38
S113125083BF83B78B7F83BF45C083B7816083BF60
S113126083B78D7F83BF83B78B7F83BF3BC083B737
S11312708E7F83BF83B7826083BF83B78B7F83BF37
S113128031C083B7816083BF83B7826083BF83B774
S11312908B7F83BF27C083B78E7F83BF83B78D7F48
S11312A083BF83B7846083BF1DC083B7816083BF5E
S11312B083B78D7F83BF83B7846083BF13C083B735
S11312C08E7F83BF83B7826083BF83B7846083BF0D
S11312D009C083B7816083BF83B7826083BF83B74C
S11312E0846083BF413069F028F0423089F0433094
S11312F0B1F0089583B78F7E83BF83B78F7D83BF9B
S1131300089583B7806183BF83B78F7D83BF0895BA
S113131083B78F7E83BF83B7806283BF089583B70B
S1131320806183BF83B7806283BF089582BF0895BD
S113133089B7816089BF0895EE0FFF1F0590F4916E
S10B1340E02D0994F894FFCF9D
S9030000FC
